:1000000012C02CC02BC02AC029C041C727C026C09F
:1000100025C00EC723C022C021C020C01FC01EC0E3
:100020001DC01CC01BC011241FBECFE5D4E0DEBF25
:10003000CDBF10E0A0E6B0E0ECEAFBE102C0059025
:100040000D92A439B107D9F720E0A4E9B0E001C0CE
:100050001D92A33FB207E1F747D6A6CDD1CF16B880
:10006000379A86B1836086B9329887B1836487B93D
:1000700087B1837787B9369A0895369A3699FECF35
:1000800084B125B190E0922B0895E199FECF9FBBFA
:100090008EBB6DBBE29AE19A0895E199FECF9FBBBA
:1000A0008EBBE09A8DB3089581B38F7181BB82B30B
:1000B000806E82BB089580B385FB882780F986997E
:1000C000826090919A00292F2370821761F0990F16
:1000D000990F982B90939A00923D39F081E0913ED0
:1000E00029F080E0089580E0089582E00895CF929D
:1000F000DF92EF92FF920F931F9330B3232F20953F
:10010000522F551F5527551F332384F020919900F6
:10011000211111C060939500709396008093970011
:10012000909398001092940080E063C02091990011
:10013000222309F457C03323D4F400919500109181
:10014000960020919700309198006B017C01C01AB5
:10015000D10AE20AF30A97018601093C110521053B
:10016000310528F040919400411129C03DC0009113
:1001700095001091960020919700309198006B01A6
:100180007C01C01AD10AE20AF30A970186014DEDFB
:10019000C41645E0D406E104F10488F040919400CF
:1001A00041110DC060939500709396008093970065
:1001B0009093980081E08093940082E01AC040916F
:1001C0009400413099F4093E13402105310580F037
:1001D0006093950070939600809397009093980099
:1001E00082E007C080E005C081E003C080E001C07C
:1001F00080E0509399001F910F91FF90EF90DF9056
:10020000CF9008950F931F93413029F4600F711F11
:10021000821F931F06C0423021F4601B710B820BBA
:10022000930B1F910F91089580E280B9089584EA9D
:1002300086BF06B607FEFDCF089583B984E886BF62
:1002400006B607FEFDCF0895CF93DF93C82FD62FB4
:10025000EEDF8D2FF2DF8C2FF0DF84E986BFDF9198
:10026000CF910895CF93C82F80919B008460809395
:100270009B006EE4E9DF85E88A95F1F70000909134
:100280009B009F7090939B008C2F8295807F6EE4E3
:10029000892BDADF80919B008B7F80939B006EE43B
:1002A000D3DF85E88A95F1F70000CF910895CF93C9
:1002B000C82F611108C080919B008E7F80939B00A6
:1002C0006EE4C2DF07C080919B00816080939B0039
:1002D0006EE4BADF8C2F82958F70C4DF8C2FC2DF63
:1002E000CF910895613051F028F0623061F06330B1
:1002F00079F0089560E08068DADF0895805C60E05E
:100300008068D5DF08958C5E60E08068D0DF089556
:100310008C5A60E08068CBDF089561E0C8DF089503
:100320008FE295E70197F1F700C0000083E09ADFC4
:100330008FE39FE10197F1F700C0000083E092DFB7
:1003400087EC90E00197F1F700C0000082E08ADFBF
:100350008FEC97E00197F1F700C0000060E088E2C1
:10036000A6DF8FEC97E00197F1F700C0000060E096
:1003700088E09DDF8FEC97E00197F1F700C0000067
:1003800060E081E094DF8FEC97E00197F1F700C027
:10039000000060E086E08BDF8FEC97E00197F1F7DB
:1003A00000C0000060E08CE082DF8FEC97E00197F6
:1003B000F1F700C0000080919B00886080939B0053
:1003C0006EE442DF80919B008D7F80939B006EE402
:1003D0003BDF089580919B00886080939B006EE4D2
:1003E00033DF089580919B00877F80939B006EE4AC
:1003F0002BDF089560E081E05ADF87EB9BE00197F7
:10040000F1F700C000000895CF93DF93EC018881DD
:10041000882329F0219681DF89918111FCCFDF911A
:10042000CF910895CF92DF92EF92FF920F931F9397
:10043000FC018181A281B38134E0839FA00DB11DB5
:100440001124C480D580E680F7800D911D912D91F7
:100450003C911397C01AD10AE20AF30AC482D582EA
:10046000E682F782AB0160E070E04D935D936D939F
:100470007C9313972181822F90E0A281B38134E095
:10048000239FA00DB11D1124CD90DD90ED90FC9027
:100490004481558166817781C40ED51EE61EF71E04
:1004A000C482D582E682F78220810196622F70E0B5
:1004B000D5D7818330E040E050E0C701B601E1D7F5
:1004C000C9011F910F91FF90EF90DF90CF90089599
:1004D00083B7816083BF89B7816089BF0895B99868
:1004E0001EBC1FBC1DBC1CBC8EB588618EBD8FB5EB
:1004F00082608FBD8FB580688FBD88E893E197BD1E
:1005000086BD84EC99E09BBD8ABD89B7806289BFB6
:100510008EB583608EBD08957F928F929F92AF9229
:10052000BF92CF92DF92EF92FF920F931F93CF93E0
:10053000DF936C01FF24D7FCF094EF2CF601DC0173
:10054000CB01AA27BB279C01AD01689415F85595EE
:100550004795379527951694D1F7A1E7B2E0BFD715
:100560008B019C01992324F4015C1F4F2F4F3F4FB7
:1005700048015901689415F8B594A7949794879405
:100580001694D1F79401369527953695279536958B
:100590002795A5ECB0E297D7AC01529542954F70E4
:1005A00045275F704527742E28EE33E0429FC00137
:1005B000439F900D529F900D1124881A990A94011F
:1005C0003695279536952795ABE7B4E17CD7969578
:1005D0008795B82E24E68216910488F0BB24B39444
:1005E000B80E8AE0B8120BC077247394740E781298
:1005F00005C0F6013196B12C712C01C0B12CFF93CE
:10060000EF930BE710E01F930F93CFEDD0E0DF9354
:10061000CF93F2D7CE01F8DE8EE790E0F5DE1F92A1
:100620007F921F930F93DF93CF93E6D7CE01ECDE3B
:100630001F92BF921F930F93DF93CF93DDD7CE010D
:10064000E3DE8DB79EB742960FB6F8949EBF0FBEFD
:100650008DBFDF91CF911F910F91FF90EF90DF90B1
:10066000CF90BF90AF909F908F907F9008954F92C2
:100670005F926F927F928F929F92AF92BF92CF9232
:10068000DF92EF92FF920F931F93CF93DF93CDB73B
:10069000DEB72E970FB6F894DEBF0FBECDBF8D87A5
:1006A0006E8729873A874B875C87E0E6F0E02081F8
:1006B00030E040E050E06481758186819781E1D629
:1006C000CA01B901DAD520E030E040E857E43BD672
:1006D000A3D52B013C01770C4408542C32010F2E7A
:1006E000F6E5AF2EF02D0F2EFDE3BF2EF02DCC241E
:1006F000C394D12CE12CF12C00E010E0262F372FF1
:10070000482F592F642D742D842D942DF2D600E19D
:1007100041D729833A834B835C836D837E838F83A8
:10072000988749805A806B807C80770C4408542CD1
:1007300032010F2EF6ECAF2EF02D0F2EF8E9BF2E62
:10074000F02DC12C00E0642D742D842D942DD1D674
:1007500000E120D7822E932EA42EB52E4501BB2476
:1007600097FCB094AB2C9F928F928BE790E09F9375
:100770008F938FED90E09F938F933ED70F900F90C4
:100780000F900F900F900F908091A200823009F48B
:10079000C3C028F4882351F0813089F18EC28330A0
:1007A00009F412C1843009F4CCC187C22D852130EF
:1007B00009F083C281E08093A20089859A85AB8588
:1007C000BC8580939E0090939F00A093A000B0935F
:1007D000A10010DEFFDD82EF99E5ABEFB0E0809382
:1007E000680090936900A0936A00B0936B0086E95B
:1007F00090E090937A0080937900B99A5EC29D85CB
:10080000913031F41092A200F5DDECDDB99806C00C
:10081000AD85A23019F482E08093A20080919E0001
:1008200090919F00A091A000B091A10029853A85E8
:100830004B855C85281B390B4A0B5B0BDA01C90120
:10084000853F9140A105B10588F189859A85AB85E1
:10085000BC8580939E0090939F00A093A000B093CE
:10086000A100C8DD60E080E03DDD80E890E0CCDD07
:100870008FED90E0C9DD85E890E0C6DD80917A00DB
:100880008F93809179008F938BE790E09F938F9364
:100890008FED90E09F938F93AFD68FED90E0B4DD16
:1008A0000F900F900F900F900F900F909E859923AF
:1008B00009F403C26091790070917A00072E000C50
:1008C000880B990B05E010E020E030E04E859ADCC3
:1008D0009B0126593109293C310508F0EEC170937E
:1008E0007A0060937900072E000C880B990BC7D40F
:1008F0002AE83CE746ED5FE326D520E030E040E81B
:1009000057E421D589D4609368007093690080937F
:100910006A0090936B00D1C1AD85A23029F481E0CB
:100920008093A20067DD06C0BD85B13019F483E075
:100930008093A20080919E0090919F00A091A000C2
:10094000B091A10029853A854B855C85281B390B20
:100950004A0B5B0BDA01C901853F9140A105B10546
:1009600008F4ABC189859A85AB85BC8580939E00D0
:1009700090939F00A093A000B093A1003BDD60E0A6
:100980008DE0B0DC8FED90E03FDD60E080E0AADC40
:100990008CE890E039DD609175007091760080916F
:1009A000770090917800B8DD61E080E09BDC80E921
:1009B00090E02ADD60917100709172008091730067
:1009C00090917400A9DD79C19D85913021F484E076
:1009D0008093A20007C0AD85A23021F481E080930E
:1009E000A20008DD80919E0090919F00A091A00040
:1009F000B091A10029853A854B855C85281B390B70
:100A00004A0B5B0BDA01C90181399140A105B1059F
:100A100008F459C089859A85AB85BC8580939E0072
:100A200090939F00A093A000B093A10080919D009F
:100A30008823E9F0DFDC60E08DE054DC8FED90E0AE
:100A4000E3DC60E080E04EDC8CE890E0DDDC61E03F
:100A500080E048DC80E990E0D7DC60917100709123
:100A60007200809173009091740056DD25C0C2DC45
:100A700060E08DE037DC8FED90E0C6DC60E080E088
:100A800031DC8CE890E0C0DC6091750070917600FC
:100A900080917700909178003FDD61E080E022DC7A
:100AA00080E990E0B1DC60917100709172008091FA
:100AB00073009091740030DD81E090919D00911160
:100AC00080E080939D009E85992309F4F6C0609193
:100AD00075007091760080917700909178000FE812
:100AE00012E020E030E04E858DDB16161706180662
:100AF00019060CF0E2C0F8946093750070937600CC
:100B000080937700909378006093DB007093DC0013
:100B10008093DD009093DE000BED10E01A821982C5
:100B2000D8016D918D01E981FA813196FA83E983CB
:100B3000CF01ABDA29813A812430310589F77894E5
:100B4000BCC03D85313021F483E08093A20007C012
:100B50004D85423021F481E08093A2004BDC8091EE
:100B60009E0090919F00A091A000B091A1002985C6
:100B70003A854B855C85281B390B4A0B5B0BDA01E8
:100B8000C90181399140A105B10508F459C0898591
:100B90009A85AB85BC8580939E0090939F00A0931F
:100BA000A000B093A10080919D008823E9F022DC91
:100BB00060E08DE097DB8FED90E026DC60E080E088
:100BC00091DB8CE890E020DC6091750070917600FC
:100BD00080917700909178009FDC61E080E082DB7B
:100BE00080E990E011DC25C005DC60E08DE07ADB77
:100BF0008FED90E009DC60E080E074DB8CE890E051
:100C000003DC60917500709176008091770090917F
:100C1000780082DC61E080E065DB80E990E0F4DB75
:100C200060917100709172008091730090917400D6
:100C300073DC81E090919D00911180E080939D0094
:100C40009E859923D1F1609171007091720080911D
:100C50007300909174000FE812E020E030E04E85C0
:100C6000D1DA16161706180619063CF5F8946093A3
:100C7000710070937200809373009093740060937E
:100C8000DB007093DC008093DD009093DE000BEDC1
:100C900010E0A4E0B0E0BA83A983F80161918F016C
:100CA00089819A81F2D929813A812F5F3F4F3A8316
:100CB00029832830310589F778942E960FB6F89459
:100CC000DEBF0FBECDBFDF91CF911F910F91FF907F
:100CD000EF90DF90CF90BF90AF909F908F907F90DC
:100CE0006F905F904F900895BAD9DED99DDA18DBE6
:100CF00079DBEEDBF4DB2FEF89E698E121508040D1
:100D00009040E1F700C0000080E090E0C6D98F3F3E
:100D1000F1F561E080E090E0B8D9809175009091A4
:100D20007600A0917700B09178008093DB009093DB
:100D3000DC00A093DD00B093DE000BED10E0780145
:100D4000C0E0D0E0F70161917F012196CE019DD9ED
:100D5000C430D105B9F78091710090917200A091D3
:100D60007300B09174008093DB009093DC00A0933B
:100D7000DD00B093DE00C4E0D0E0F80161918F01A6
:100D8000CE0183D92196C830D105B9F739C00BED12
:100D900010E07801C0E0D0E02196CE017ED9F701C5
:100DA00081937F01C430D105B9F78091DB00909128
:100DB000DC00A091DD00B091DE008093750090937F
:100DC0007600A0937700B0937800C4E0D0E0CE0125
:100DD00064D9F80181938F012196C830D105B9F704
:100DE0008091DB009091DC00A091DD00B091DE00ED
:100DF0008093710090937200A0937300B09374007D
:100E000078946091D7007091D8008091D90090912A
:100E1000DA006DD9C82F4FD92091D7003091D80072
:100E20004091D9005091DA00682F8C2F20DCE9CF57
:100E30001F920F920FB60F9211248F939F93AF932F
:100E4000BF9380919C008F31B1F410929C008091EF
:100E5000D7009091D800A091D900B091DA00019606
:100E6000A11DB11D8093D7009093D800A093D90005
:100E7000B093DA0003C08F5F80939C00BF91AF9165
:100E80009F918F910F900FBE0F901F9018951F92FA
:100E90000F920FB60F9211244F925F926F927F9232
:100EA0008F929F92AF92BF92CF92DF92EF92FF927A
:100EB0000F931F932F933F934F935F936F937F9362
:100EC0008F939F93AF93BF93EF93FF93CF93DF9352
:100ED000CDB7DEB72897DEBFCDBFCFD8BC0180E647
:100EE00090E0A0DABC0180E090E0C7D120E030E0E3
:100EF00040E857E428D290D12B013C01770C4408FC
:100F0000542C32010F2EF6E5AF2EF02D0F2EFDE3FF
:100F1000BF2EF02DCC24C394D12CE12CF12C00E079
:100F200010E0262F372F482F592F642D742D842D34
:100F3000942DDFD200E12ED3822E932EA42EB52E37
:100F4000409068005090690060906A0070906B005B
:100F5000481859086A087B088091750090917600BE
:100F6000A0917700B09178008C019D01330F000BA8
:100F7000102F980109831A832B833C83B301A201AC
:100F8000770F440B542FBA01A42CB52CC62CD72CA8
:100F9000E42EF42E042F142F282F392F4A2F5B2FE5
:100FA0006981762F862F962FA4D200E1F3D2298370
:100FB0003A834B835C832093C3003093C4004093F7
:100FC000C5005093C60080916C00882309F45DC071
:100FD0008091D3009091D400A091D500B091D6001B
:100FE000840D951DA61DB71DAC01BD01BB2324F4C6
:100FF0004F5F5F4F6F4F7F4FDB01CA01B595A795DC
:10100000979587958A019B01330F000B102F98014C
:101010000D831E832F833887009171001091720019
:101020002091730030917400B901A801770F440B2F
:10103000542FBA01A02EB12EC22ED32EE42EF42EA0
:10104000042F142F282F392F4A2F5B2F6D81762FD5
:10105000862F962F4ED200E19DD2822E932EA42E63
:10106000B52E8091CB009091CC00A091CD00B09195
:10107000CE00880E991EAA1EBB1E8092CB009092B5
:10108000CC00A092CD00B092CE008091D300909180
:10109000D400A091D500B091D600A3019201281BE5
:1010A000390B4A0B5B0BDA01C90189019A01330F35
:1010B000000B102F98010D831E832F83388700911A
:1010C0006D0010916E0020916F0030917000B90199
:1010D000A801770F440B542FBA01A02EB12EC22EB7
:1010E000D32EE42EF42E042F142F282F392F4A2F1D
:1010F0005B2F6D81762F862F962FFBD100E14AD290
:10110000822F932FA42FB52F8093CF009093D000E0
:10111000A093D100B093D2004091CB005091CC006D
:101120006091CD007091CE0009811A812B813C81A4
:10113000400F511F621F731F840F951FA61FB71FFB
:101140008093C7009093C800A093C900B093CA00D1
:101150008130910518E8A10713E1B1077CF080E028
:1011600090E0A8E8B3E18093C7009093C800A093F3
:10117000C900B093CA0010926C0010C0BB235CF48D
:101180001092C7001092C8001092C9001092CA00B5
:1011900010926C0003C081E080936C004092D300F9
:1011A0005092D4006092D5007092D6008091C70012
:1011B0009091C800A091C900B091CA00CD01BB2791
:1011C00097FDB095AB2F9BBD8ABD28960FB6F894BE
:1011D000DEBF0FBECDBFDF91CF91FF91EF91BF91E9
:1011E000AF919F918F917F916F915F914F913F91BF
:1011F0002F911F910F91FF90EF90DF90CF90BF90B4
:10120000AF909F908F907F906F905F904F900F90D6
:101210000FBE0F901F90189504D06894B1118DC027
:10122000089570D088F09F5790F0B92F9927B75143
:10123000A0F0D1F0660F771F881F991F1AF0BA959A
:10124000C9F712C0B13081F077D0B1E0089574C011
:10125000672F782F8827B85F39F0B93FCCF3869590
:1012600077956795B395D9F73EF4909580957095ED
:1012700061957F4F8F4F9F4F0895E89409C097FB6A
:101280003EF490958095709561957F4F8F4F9F4F5D
:101290009923A9F0F92F96E9BB279395F6958795A1
:1012A00077956795B795F111F8CFFAF4BB0F11F464
:1012B00060FF1BC06F5F7F4F8F4F9F4F16C088230B
:1012C00011F096E911C0772321F09EE8872F762F41
:1012D00005C0662371F096E8862F70E060E02AF082
:1012E0009A95660F771F881FDAF7880F969587956E
:1012F00097F9089557FD9058440F551F59F05F3FD7
:1013000071F04795880F97FB991F61F09F3F79F027
:1013100087950895121613061406551FF2CF4695A9
:10132000F1DF08C0161617061806991FF1CF86952B
:101330007105610508940895E894BB27662777270F
:10134000CB0197F908950BD078C069D028F06ED002
:1013500018F0952309F05AC05FC01124EECFCADF00
:10136000A0F3959FD1F3950F50E0551F629FF001B8
:10137000729FBB27F00DB11D639FAA27F00DB11D11
:10138000AA1F649F6627B00DA11D661F829F22279A
:10139000B00DA11D621F739FB00DA11D621F839F21
:1013A000A00D611D221F749F3327A00D611D231FF7
:1013B000849F600D211D822F762F6A2F11249F5745
:1013C00050408AF0E1F088234AF0EE0FFF1FBB1F68
:1013D000661F771F881F91505040A9F79E3F510507
:1013E00070F014C0AACF5F3FECF3983EDCF3869513
:1013F00077956795B795F795E7959F5FC1F7FE2BB2
:10140000880F911D9695879597F9089597F99F678D
:1014100080E870E060E008959FEF80EC089500247C
:101420000A941616170618060906089500240A9449
:1014300012161306140605060895092E0394000CCF
:1014400011F4882352F0BB0F40F4BF2B11F460FF5E
:1014500004C06F5F7F4F8F4F9F4F089597FB072EFC
:1014600016F4009406D077FD08D0B2D007FC05D062
:101470003EF4909581959F4F0895709561957F4FAB
:101480000895A1E21A2EAA1BBB1BFD010DC0AA1FC5
:10149000BB1FEE1FFF1FA217B307E407F50720F0DD
:1014A000A21BB30BE40BF50B661F771F881F991F58
:1014B0001A9469F760957095809590959B01AC01A1
:1014C000BD01CF010895A29FB001B39FC001A39FAA
:1014D00001D0B29F700D811D1124911D0895F3DF7D
:1014E000A59F900DB49F900DA49F800D911D112478
:1014F0000895DF93CF931F930F939A9DF02D219F13
:10150000F00D8B9DF00D8A9DE02DF10D039FF00DE8
:10151000029FE00DF11D4E9DE00DF11D5E9DF00D51
:101520004F9DF00D7F936F93BF92AF925F934F9358
:10153000D501C9DF8B01AC01D701C5DFEB01E80F95
:10154000F91FD6011FD02F913F91D601BCDFC60FE6
:10155000D71FE81FF91FAF91BF9114D02F913F9172
:10156000B2DFC60FD71FE81FF91FD601ACDFE60FA9
:10157000F71F9801BE01CF0111240F911F91CF9148
:10158000DF910895A0DF460F571FC81FD91F08F429
:101590003196089597FB10F8169400080F930830C1
:1015A00098F00850232F342F452F562F672F782F70
:1015B000892F902DF4CF059497958795779567950A
:1015C00057954795379527950A95AAF70F9108954E
:1015D000AA1BBB1B51E107C0AA1FBB1FA617B70759
:1015E00010F0A61BB70B881F991F5A95A9F7809575
:1015F0009095BC01CD010895AEE0B0E0E1E0FBE0E4
:10160000AAC20D891E8986E08C831A8309838FEF15
:101610009FE79E838D83AE01475E5F4F6F89788D14
:10162000CE01019608D0EF81F885E00FF11F1082FE
:101630002E96E4E0ACC2ABE0B0E0E0E2FBE07DC2BD
:101640006C017B018A01FC0117821682838181FF74
:10165000BFC1CE0101963C01F6019381F70193FDD4
:10166000859193FF81917F01882309F4ADC1853273
:1016700039F493FD859193FF81917F01853221F4A7
:10168000B60190E0C0D1E8CF912C212C312CFFE1A4
:10169000F315D8F08B3279F038F4803279F0833258
:1016A000A1F4232D20611DC08D3261F0803369F4D7
:1016B000232D216016C0832D8260382EE32DE46037
:1016C0003E2E2AC0F32DF8601DC037FC2DC020ED42
:1016D000280F2A3040F08E32B9F436FC75C1232D24
:1016E0002064322E19C036FE06C08AE0989E200D76
:1016F0001124922E11C0EAE02E9E200D1124222EDC
:10170000F32DF0623F2E08C08C3621F4832D8068C3
:10171000382E02C0883641F4F70193FD859193FF7E
:1017200081917F018111B3CF982F9F7D9554933084
:1017300028F40C5F1F4F9FE399830DC0833631F06F
:10174000833771F0833509F055C020C0F8018081DE
:1017500089830E5F1F4F88248394912C530112C0FC
:101760002801F2E04F0E511CF801A080B18036FE36
:1017700003C0692D70E002C06FEF7FEFC50138D163
:101780004C018201F32DFF773F2E15C0280122E086
:10179000420E511CF801A080B18036FE03C0692DB5
:1017A00070E002C06FEF7FEFC50117D14C01F32D40
:1017B000F0683F2E820133FC19C0822D90E088161C
:1017C0009906A0F4B60180E290E01DD12A94F5CFED
:1017D000F50137FC859137FE81915F01B60190E0FC
:1017E00012D121102A9421E0821A910881149104C7
:1017F00079F7E1C0843611F0893639F5F80137FE02
:1018000007C060817181828193810C5F1F4F08C086
:1018100060817181072E000C880B990B0E5F1F4FA2
:10182000F32DFF763F2E97FF09C090958095709518
:1018300061957F4F8F4F9F4FF0683F2E2AE030E039
:10184000A3011DD1882E861844C0853731F4232D7D
:101850002F7EB22E2AE030E025C0932D997FB92E3D
:101860008F36C1F018F4883579F0AEC0803719F0A2
:10187000883721F0A9C0E92FE061BE2EB4FE0DC06B
:10188000FB2DF460BF2E09C034FE0AC0292F26604C
:10189000B22E06C028E030E005C020E130E002C0F2
:1018A00020E132E0F801B7FE07C0608171818281DA
:1018B00093810C5F1F4F06C06081718180E090E0D2
:1018C0000E5F1F4FA301DBD0882E8618FB2DFF77FC
:1018D0003F2E36FE0DC0232D2E7FA22E891458F4E4
:1018E00034FE0BC032FC09C0832D8E7EA82E05C0AD
:1018F000B82CA32C03C0B82C01C0B92CA4FE0FC077
:10190000FE01E80DF11D8081803321F49A2D997E2E
:10191000A92E09C0A2FE06C0B394B39404C08A2DB8
:10192000867809F0B394A3FC10C0A0FE06C0B214E0
:1019300080F4280C922C9B180DC0B21458F4B601F8
:1019400080E290E060D0B394F8CFB21418F42B1872
:1019500002C0982C212CA4FE0FC0B60180E390E0B9
:1019600052D0A2FE16C0A1FC03C088E790E002C0DE
:1019700088E590E0B6010CC08A2D867851F0A1FE72
:1019800002C08BE201C080E2A7FC8DE2B60190E0CC
:101990003AD0891430F4B60180E390E034D09A94C0
:1019A000F8CF8A94F301E80DF11D8081B60190E033
:1019B0002AD08110F6CF222009F44ECEB60180E263
:1019C00090E021D02A94F7CFF6018681978102C05A
:1019D0008FEF9FEF2B96E2E1CCC0FC0105906150A8
:1019E00070400110D8F7809590958E0F9F1F089535
:1019F000FC016150704001900110D8F780959095DE
:101A00008E0F9F1F08950F931F93CF93DF93FB01BA
:101A1000238121FD03C08FEF9FEF2CC022FF16C052
:101A200046815781248135814217530744F4A081B0
:101A3000B1819D012F5F3F4F318320838C9326819D
:101A400037812F5F3F4F3783268314C08B01EC0112
:101A5000FB010084F185E02D0995892BE1F6D80181
:101A600016968D919C911797019617969C938E933D
:101A70001697CE01DF91CF911F910F910895FA0132
:101A8000AA27283051F1203181F1E8946F936E7FBD
:101A90006E5F7F4F8F4F9F4FAF4FB1E03ED0B4E0AE
:101AA0003CD0670F781F891F9A1FA11D680F791FEF
:101AB0008A1F911DA11D6A0F711D811D911DA11D00
:101AC00020D009F468943F912AE0269F1124301910
:101AD000305D3193DEF6CF010895462F4770405DAB
:101AE0004193B3E00FD0C9F7F6CF462F4F70405D5A
:101AF0004A3318F0495D31FD4052419302D0A9F7B5
:101B0000EACFB4E0A6959795879577956795BA95AE
:101B1000C9F700976105710508959B01AC010A2E74
:101B200006945795479537952795BA95C9F7620F4B
:101B3000731F841F951FA01D08952F923F924F92EF
:101B40005F926F927F928F929F92AF92BF92CF924D
:101B5000DF92EF92FF920F931F93CF93DF93CDB756
:101B6000DEB7CA1BDB0B0FB6F894DEBF0FBECDBFCE
:101B700009942A88398848885F846E847D848C849F
:101B80009B84AA84B984C884DF80EE80FD800C81A8
:101B90001B81AA81B981CE0FD11D0FB6F894DEBF8B
:0C1BA0000FBECDBFED010895F894FFCFFB
:101BAC000800A30000000000F259FB0001004038BF
:101BBC0000991900000080230096002564002E0077
:101BCC0074543A20002C2074593A20004B703A007F
:041BDC004B693A0017
:00000001FF
